{
	"variables.sol": {
		"variables": {
			"abi": [
				{
					"inputs": [],
					"name": "decrementUint",
					"outputs": [],
					"stateMutability": "nonpayable",
					"type": "function"
				},
				{
					"inputs": [],
					"name": "getBalanceOfAddress",
					"outputs": [
						{
							"internalType": "uint256",
							"name": "",
							"type": "uint256"
						}
					],
					"stateMutability": "view",
					"type": "function"
				},
				{
					"inputs": [],
					"name": "incrementUint",
					"outputs": [],
					"stateMutability": "nonpayable",
					"type": "function"
				},
				{
					"inputs": [],
					"name": "myAddress",
					"outputs": [
						{
							"internalType": "address",
							"name": "",
							"type": "address"
						}
					],
					"stateMutability": "view",
					"type": "function"
				},
				{
					"inputs": [],
					"name": "myBool",
					"outputs": [
						{
							"internalType": "bool",
							"name": "",
							"type": "bool"
						}
					],
					"stateMutability": "view",
					"type": "function"
				},
				{
					"inputs": [],
					"name": "myUint",
					"outputs": [
						{
							"internalType": "uint256",
							"name": "",
							"type": "uint256"
						}
					],
					"stateMutability": "view",
					"type": "function"
				},
				{
					"inputs": [],
					"name": "myUint8",
					"outputs": [
						{
							"internalType": "uint8",
							"name": "",
							"type": "uint8"
						}
					],
					"stateMutability": "view",
					"type": "function"
				},
				{
					"inputs": [
						{
							"internalType": "address",
							"name": "_address",
							"type": "address"
						}
					],
					"name": "setAddress",
					"outputs": [],
					"stateMutability": "nonpayable",
					"type": "function"
				},
				{
					"inputs": [
						{
							"internalType": "uint256",
							"name": "_myUint",
							"type": "uint256"
						}
					],
					"name": "setMyUint",
					"outputs": [],
					"stateMutability": "nonpayable",
					"type": "function"
				},
				{
					"inputs": [
						{
							"internalType": "bool",
							"name": "_myBool",
							"type": "bool"
						}
					],
					"name": "setmyBool",
					"outputs": [],
					"stateMutability": "nonpayable",
					"type": "function"
				}
			],
			"devdoc": {
				"kind": "dev",
				"methods": {},
				"version": 1
			},
			"evm": {
				"assembly": "    /* \"variables.sol\":56:735  contract variables{... */\n  mstore(0x40, 0x80)\n  callvalue\n  dup1\n  iszero\n  tag_1\n  jumpi\n  0x00\n  dup1\n  revert\ntag_1:\n  pop\n  dataSize(sub_0)\n  dup1\n  dataOffset(sub_0)\n  0x00\n  codecopy\n  0x00\n  return\nstop\n\nsub_0: assembly {\n        /* \"variables.sol\":56:735  contract variables{... */\n      mstore(0x40, 0x80)\n      callvalue\n      dup1\n      iszero\n      tag_1\n      jumpi\n      0x00\n      dup1\n      revert\n    tag_1:\n      pop\n      jumpi(tag_2, lt(calldatasize, 0x04))\n      shr(0xe0, calldataload(0x00))\n      dup1\n      0xda50eaee\n      gt\n      tag_13\n      jumpi\n      dup1\n      0xda50eaee\n      eq\n      tag_8\n      jumpi\n      dup1\n      0xe2a4b2af\n      eq\n      tag_9\n      jumpi\n      dup1\n      0xe30081a0\n      eq\n      tag_10\n      jumpi\n      dup1\n      0xe492fd84\n      eq\n      tag_11\n      jumpi\n      dup1\n      0xe9859081\n      eq\n      tag_12\n      jumpi\n      jump(tag_2)\n    tag_13:\n      dup1\n      0x06540f7e\n      eq\n      tag_3\n      jumpi\n      dup1\n      0x14bf43bd\n      eq\n      tag_4\n      jumpi\n      dup1\n      0x15502612\n      eq\n      tag_5\n      jumpi\n      dup1\n      0x26b85ee1\n      eq\n      tag_6\n      jumpi\n      dup1\n      0x6deecdbe\n      eq\n      tag_7\n      jumpi\n    tag_2:\n      0x00\n      dup1\n      revert\n        /* \"variables.sol\":80:98  uint public myUint */\n    tag_3:\n      tag_14\n      tag_15\n      jump\t// in\n    tag_14:\n      mload(0x40)\n      tag_16\n      swap2\n      swap1\n      tag_17\n      jump\t// in\n    tag_16:\n      mload(0x40)\n      dup1\n      swap2\n      sub\n      swap1\n      return\n        /* \"variables.sol\":313:402  function incrementUint() public{... */\n    tag_4:\n      tag_18\n      tag_19\n      jump\t// in\n    tag_18:\n      stop\n        /* \"variables.sol\":629:727  function getBalanceOfAddress() public view returns(uint) {... */\n    tag_5:\n      tag_20\n      tag_21\n      jump\t// in\n    tag_20:\n      mload(0x40)\n      tag_22\n      swap2\n      swap1\n      tag_17\n      jump\t// in\n    tag_22:\n      mload(0x40)\n      dup1\n      swap2\n      sub\n      swap1\n      return\n        /* \"variables.sol\":504:528  address public myAddress */\n    tag_6:\n      tag_23\n      tag_24\n      jump\t// in\n    tag_23:\n      mload(0x40)\n      tag_25\n      swap2\n      swap1\n      tag_26\n      jump\t// in\n    tag_25:\n      mload(0x40)\n      dup1\n      swap2\n      sub\n      swap1\n      return\n        /* \"variables.sol\":183:201  bool public myBool */\n    tag_7:\n      tag_27\n      tag_28\n      jump\t// in\n    tag_27:\n      mload(0x40)\n      tag_29\n      swap2\n      swap1\n      tag_30\n      jump\t// in\n    tag_29:\n      mload(0x40)\n      dup1\n      swap2\n      sub\n      swap1\n      return\n        /* \"variables.sol\":408:498  function decrementUint() public{... */\n    tag_8:\n      tag_31\n      tag_32\n      jump\t// in\n    tag_31:\n      stop\n        /* \"variables.sol\":286:306  uint8 public myUint8 */\n    tag_9:\n      tag_33\n      tag_34\n      jump\t// in\n    tag_33:\n      mload(0x40)\n      tag_35\n      swap2\n      swap1\n      tag_36\n      jump\t// in\n    tag_35:\n      mload(0x40)\n      dup1\n      swap2\n      sub\n      swap1\n      return\n        /* \"variables.sol\":540:623  function setAddress(address _address) public {... */\n    tag_10:\n      tag_37\n      0x04\n      dup1\n      calldatasize\n      sub\n      dup2\n      add\n      swap1\n      tag_38\n      swap2\n      swap1\n      tag_39\n      jump\t// in\n    tag_38:\n      tag_40\n      jump\t// in\n    tag_37:\n      stop\n        /* \"variables.sol\":105:177  function setMyUint(uint _myUint) public{... */\n    tag_11:\n      tag_41\n      0x04\n      dup1\n      calldatasize\n      sub\n      dup2\n      add\n      swap1\n      tag_42\n      swap2\n      swap1\n      tag_43\n      jump\t// in\n    tag_42:\n      tag_44\n      jump\t// in\n    tag_41:\n      stop\n        /* \"variables.sol\":208:280  function setmyBool(bool _myBool) public{... */\n    tag_12:\n      tag_45\n      0x04\n      dup1\n      calldatasize\n      sub\n      dup2\n      add\n      swap1\n      tag_46\n      swap2\n      swap1\n      tag_47\n      jump\t// in\n    tag_46:\n      tag_48\n      jump\t// in\n    tag_45:\n      stop\n        /* \"variables.sol\":80:98  uint public myUint */\n    tag_15:\n      sload(0x00)\n      dup2\n      jump\t// out\n        /* \"variables.sol\":313:402  function incrementUint() public{... */\n    tag_19:\n        /* \"variables.sol\":376:383  myUint8 */\n      0x01\n      dup1\n        /* \"variables.sol\":376:385  myUint8++ */\n      dup2\n      dup2\n      swap1\n      sload\n      swap1\n      0x0100\n      exp\n      swap1\n      div\n      0xff\n      and\n      dup1\n      swap3\n      swap2\n      swap1\n      0x01\n      add\n      swap2\n      swap1\n      0x0100\n      exp\n      dup2\n      sload\n      dup2\n      0xff\n      mul\n      not\n      and\n      swap1\n      dup4\n      0xff\n      and\n      mul\n      or\n      swap1\n      sstore\n      pop\n      pop\n        /* \"variables.sol\":313:402  function incrementUint() public{... */\n      jump\t// out\n        /* \"variables.sol\":629:727  function getBalanceOfAddress() public view returns(uint) {... */\n    tag_21:\n        /* \"variables.sol\":680:684  uint */\n      0x00\n        /* \"variables.sol\":703:712  myAddress */\n      0x01\n      0x02\n      swap1\n      sload\n      swap1\n      0x0100\n      exp\n      swap1\n      div\n      0xffffffffffffffffffffffffffffffffffffffff\n      and\n        /* \"variables.sol\":703:720  myAddress.balance */\n      0xffffffffffffffffffffffffffffffffffffffff\n      and\n      balance\n        /* \"variables.sol\":696:720  return myAddress.balance */\n      swap1\n      pop\n        /* \"variables.sol\":629:727  function getBalanceOfAddress() public view returns(uint) {... */\n      swap1\n      jump\t// out\n        /* \"variables.sol\":504:528  address public myAddress */\n    tag_24:\n      0x01\n      0x02\n      swap1\n      sload\n      swap1\n      0x0100\n      exp\n      swap1\n      div\n      0xffffffffffffffffffffffffffffffffffffffff\n      and\n      dup2\n      jump\t// out\n        /* \"variables.sol\":183:201  bool public myBool */\n    tag_28:\n      0x01\n      0x00\n      swap1\n      sload\n      swap1\n      0x0100\n      exp\n      swap1\n      div\n      0xff\n      and\n      dup2\n      jump\t// out\n        /* \"variables.sol\":408:498  function decrementUint() public{... */\n    tag_32:\n        /* \"variables.sol\":472:479  myUint8 */\n      0x01\n      dup1\n        /* \"variables.sol\":472:481  myUint8-- */\n      dup2\n      dup2\n      swap1\n      sload\n      swap1\n      0x0100\n      exp\n      swap1\n      div\n      0xff\n      and\n      dup1\n      swap3\n      swap2\n      swap1\n      0x01\n      swap1\n      sub\n      swap2\n      swap1\n      0x0100\n      exp\n      dup2\n      sload\n      dup2\n      0xff\n      mul\n      not\n      and\n      swap1\n      dup4\n      0xff\n      and\n      mul\n      or\n      swap1\n      sstore\n      pop\n      pop\n        /* \"variables.sol\":408:498  function decrementUint() public{... */\n      jump\t// out\n        /* \"variables.sol\":286:306  uint8 public myUint8 */\n    tag_34:\n      0x01\n      dup1\n      sload\n      swap1\n      0x0100\n      exp\n      swap1\n      div\n      0xff\n      and\n      dup2\n      jump\t// out\n        /* \"variables.sol\":540:623  function setAddress(address _address) public {... */\n    tag_40:\n        /* \"variables.sol\":607:615  _address */\n      dup1\n        /* \"variables.sol\":595:604  myAddress */\n      0x01\n      0x02\n        /* \"variables.sol\":595:615  myAddress = _address */\n      0x0100\n      exp\n      dup2\n      sload\n      dup2\n      0xffffffffffffffffffffffffffffffffffffffff\n      mul\n      not\n      and\n      swap1\n      dup4\n      0xffffffffffffffffffffffffffffffffffffffff\n      and\n      mul\n      or\n      swap1\n      sstore\n      pop\n        /* \"variables.sol\":540:623  function setAddress(address _address) public {... */\n      pop\n      jump\t// out\n        /* \"variables.sol\":105:177  function setMyUint(uint _myUint) public{... */\n    tag_44:\n        /* \"variables.sol\":163:170  _myUint */\n      dup1\n        /* \"variables.sol\":154:160  myUint */\n      0x00\n        /* \"variables.sol\":154:170  myUint = _myUint */\n      dup2\n      swap1\n      sstore\n      pop\n        /* \"variables.sol\":105:177  function setMyUint(uint _myUint) public{... */\n      pop\n      jump\t// out\n        /* \"variables.sol\":208:280  function setmyBool(bool _myBool) public{... */\n    tag_48:\n        /* \"variables.sol\":266:273  _myBool */\n      dup1\n        /* \"variables.sol\":257:263  myBool */\n      0x01\n      0x00\n        /* \"variables.sol\":257:273  myBool = _myBool */\n      0x0100\n      exp\n      dup2\n      sload\n      dup2\n      0xff\n      mul\n      not\n      and\n      swap1\n      dup4\n      iszero\n      iszero\n      mul\n      or\n      swap1\n      sstore\n      pop\n        /* \"variables.sol\":208:280  function setmyBool(bool _myBool) public{... */\n      pop\n      jump\t// out\n        /* \"#utility.yul\":7:146   */\n    tag_56:\n        /* \"#utility.yul\":53:58   */\n      0x00\n        /* \"#utility.yul\":91:97   */\n      dup2\n        /* \"#utility.yul\":78:98   */\n      calldataload\n        /* \"#utility.yul\":69:98   */\n      swap1\n      pop\n        /* \"#utility.yul\":107:140   */\n      tag_58\n        /* \"#utility.yul\":134:139   */\n      dup2\n        /* \"#utility.yul\":107:140   */\n      tag_59\n      jump\t// in\n    tag_58:\n        /* \"#utility.yul\":7:146   */\n      swap3\n      swap2\n      pop\n      pop\n      jump\t// out\n        /* \"#utility.yul\":152:285   */\n    tag_60:\n        /* \"#utility.yul\":195:200   */\n      0x00\n        /* \"#utility.yul\":233:239   */\n      dup2\n        /* \"#utility.yul\":220:240   */\n      calldataload\n        /* \"#utility.yul\":211:240   */\n      swap1\n      pop\n        /* \"#utility.yul\":249:279   */\n      tag_62\n        /* \"#utility.yul\":273:278   */\n      dup2\n        /* \"#utility.yul\":249:279   */\n      tag_63\n      jump\t// in\n    tag_62:\n        /* \"#utility.yul\":152:285   */\n      swap3\n      swap2\n      pop\n      pop\n      jump\t// out\n        /* \"#utility.yul\":291:430   */\n    tag_64:\n        /* \"#utility.yul\":337:342   */\n      0x00\n        /* \"#utility.yul\":375:381   */\n      dup2\n        /* \"#utility.yul\":362:382   */\n      calldataload\n        /* \"#utility.yul\":353:382   */\n      swap1\n      pop\n        /* \"#utility.yul\":391:424   */\n      tag_66\n        /* \"#utility.yul\":418:423   */\n      dup2\n        /* \"#utility.yul\":391:424   */\n      tag_67\n      jump\t// in\n    tag_66:\n        /* \"#utility.yul\":291:430   */\n      swap3\n      swap2\n      pop\n      pop\n      jump\t// out\n        /* \"#utility.yul\":436:765   */\n    tag_39:\n        /* \"#utility.yul\":495:501   */\n      0x00\n        /* \"#utility.yul\":544:546   */\n      0x20\n        /* \"#utility.yul\":532:541   */\n      dup3\n        /* \"#utility.yul\":523:530   */\n      dup5\n        /* \"#utility.yul\":519:542   */\n      sub\n        /* \"#utility.yul\":515:547   */\n      slt\n        /* \"#utility.yul\":512:631   */\n      iszero\n      tag_69\n      jumpi\n        /* \"#utility.yul\":550:629   */\n      tag_70\n      tag_71\n      jump\t// in\n    tag_70:\n        /* \"#utility.yul\":512:631   */\n    tag_69:\n        /* \"#utility.yul\":670:671   */\n      0x00\n        /* \"#utility.yul\":695:748   */\n      tag_72\n        /* \"#utility.yul\":740:747   */\n      dup5\n        /* \"#utility.yul\":731:737   */\n      dup3\n        /* \"#utility.yul\":720:729   */\n      dup6\n        /* \"#utility.yul\":716:738   */\n      add\n        /* \"#utility.yul\":695:748   */\n      tag_56\n      jump\t// in\n    tag_72:\n        /* \"#utility.yul\":685:748   */\n      swap2\n      pop\n        /* \"#utility.yul\":641:758   */\n      pop\n        /* \"#utility.yul\":436:765   */\n      swap3\n      swap2\n      pop\n      pop\n      jump\t// out\n        /* \"#utility.yul\":771:1094   */\n    tag_47:\n        /* \"#utility.yul\":827:833   */\n      0x00\n        /* \"#utility.yul\":876:878   */\n      0x20\n        /* \"#utility.yul\":864:873   */\n      dup3\n        /* \"#utility.yul\":855:862   */\n      dup5\n        /* \"#utility.yul\":851:874   */\n      sub\n        /* \"#utility.yul\":847:879   */\n      slt\n        /* \"#utility.yul\":844:963   */\n      iszero\n      tag_74\n      jumpi\n        /* \"#utility.yul\":882:961   */\n      tag_75\n      tag_71\n      jump\t// in\n    tag_75:\n        /* \"#utility.yul\":844:963   */\n    tag_74:\n        /* \"#utility.yul\":1002:1003   */\n      0x00\n        /* \"#utility.yul\":1027:1077   */\n      tag_76\n        /* \"#utility.yul\":1069:1076   */\n      dup5\n        /* \"#utility.yul\":1060:1066   */\n      dup3\n        /* \"#utility.yul\":1049:1058   */\n      dup6\n        /* \"#utility.yul\":1045:1067   */\n      add\n        /* \"#utility.yul\":1027:1077   */\n      tag_60\n      jump\t// in\n    tag_76:\n        /* \"#utility.yul\":1017:1077   */\n      swap2\n      pop\n        /* \"#utility.yul\":973:1087   */\n      pop\n        /* \"#utility.yul\":771:1094   */\n      swap3\n      swap2\n      pop\n      pop\n      jump\t// out\n        /* \"#utility.yul\":1100:1429   */\n    tag_43:\n        /* \"#utility.yul\":1159:1165   */\n      0x00\n        /* \"#utility.yul\":1208:1210   */\n      0x20\n        /* \"#utility.yul\":1196:1205   */\n      dup3\n        /* \"#utility.yul\":1187:1194   */\n      dup5\n        /* \"#utility.yul\":1183:1206   */\n      sub\n        /* \"#utility.yul\":1179:1211   */\n      slt\n        /* \"#utility.yul\":1176:1295   */\n      iszero\n      tag_78\n      jumpi\n        /* \"#utility.yul\":1214:1293   */\n      tag_79\n      tag_71\n      jump\t// in\n    tag_79:\n        /* \"#utility.yul\":1176:1295   */\n    tag_78:\n        /* \"#utility.yul\":1334:1335   */\n      0x00\n        /* \"#utility.yul\":1359:1412   */\n      tag_80\n        /* \"#utility.yul\":1404:1411   */\n      dup5\n        /* \"#utility.yul\":1395:1401   */\n      dup3\n        /* \"#utility.yul\":1384:1393   */\n      dup6\n        /* \"#utility.yul\":1380:1402   */\n      add\n        /* \"#utility.yul\":1359:1412   */\n      tag_64\n      jump\t// in\n    tag_80:\n        /* \"#utility.yul\":1349:1412   */\n      swap2\n      pop\n        /* \"#utility.yul\":1305:1422   */\n      pop\n        /* \"#utility.yul\":1100:1429   */\n      swap3\n      swap2\n      pop\n      pop\n      jump\t// out\n        /* \"#utility.yul\":1435:1553   */\n    tag_81:\n        /* \"#utility.yul\":1522:1546   */\n      tag_83\n        /* \"#utility.yul\":1540:1545   */\n      dup2\n        /* \"#utility.yul\":1522:1546   */\n      tag_84\n      jump\t// in\n    tag_83:\n        /* \"#utility.yul\":1517:1520   */\n      dup3\n        /* \"#utility.yul\":1510:1547   */\n      mstore\n        /* \"#utility.yul\":1435:1553   */\n      pop\n      pop\n      jump\t// out\n        /* \"#utility.yul\":1559:1668   */\n    tag_85:\n        /* \"#utility.yul\":1640:1661   */\n      tag_87\n        /* \"#utility.yul\":1655:1660   */\n      dup2\n        /* \"#utility.yul\":1640:1661   */\n      tag_88\n      jump\t// in\n    tag_87:\n        /* \"#utility.yul\":1635:1638   */\n      dup3\n        /* \"#utility.yul\":1628:1662   */\n      mstore\n        /* \"#utility.yul\":1559:1668   */\n      pop\n      pop\n      jump\t// out\n        /* \"#utility.yul\":1674:1792   */\n    tag_89:\n        /* \"#utility.yul\":1761:1785   */\n      tag_91\n        /* \"#utility.yul\":1779:1784   */\n      dup2\n        /* \"#utility.yul\":1761:1785   */\n      tag_92\n      jump\t// in\n    tag_91:\n        /* \"#utility.yul\":1756:1759   */\n      dup3\n        /* \"#utility.yul\":1749:1786   */\n      mstore\n        /* \"#utility.yul\":1674:1792   */\n      pop\n      pop\n      jump\t// out\n        /* \"#utility.yul\":1798:1910   */\n    tag_93:\n        /* \"#utility.yul\":1881:1903   */\n      tag_95\n        /* \"#utility.yul\":1897:1902   */\n      dup2\n        /* \"#utility.yul\":1881:1903   */\n      tag_96\n      jump\t// in\n    tag_95:\n        /* \"#utility.yul\":1876:1879   */\n      dup3\n        /* \"#utility.yul\":1869:1904   */\n      mstore\n        /* \"#utility.yul\":1798:1910   */\n      pop\n      pop\n      jump\t// out\n        /* \"#utility.yul\":1916:2138   */\n    tag_26:\n        /* \"#utility.yul\":2009:2013   */\n      0x00\n        /* \"#utility.yul\":2047:2049   */\n      0x20\n        /* \"#utility.yul\":2036:2045   */\n      dup3\n        /* \"#utility.yul\":2032:2050   */\n      add\n        /* \"#utility.yul\":2024:2050   */\n      swap1\n      pop\n        /* \"#utility.yul\":2060:2131   */\n      tag_98\n        /* \"#utility.yul\":2128:2129   */\n      0x00\n        /* \"#utility.yul\":2117:2126   */\n      dup4\n        /* \"#utility.yul\":2113:2130   */\n      add\n        /* \"#utility.yul\":2104:2110   */\n      dup5\n        /* \"#utility.yul\":2060:2131   */\n      tag_81\n      jump\t// in\n    tag_98:\n        /* \"#utility.yul\":1916:2138   */\n      swap3\n      swap2\n      pop\n      pop\n      jump\t// out\n        /* \"#utility.yul\":2144:2354   */\n    tag_30:\n        /* \"#utility.yul\":2231:2235   */\n      0x00\n        /* \"#utility.yul\":2269:2271   */\n      0x20\n        /* \"#utility.yul\":2258:2267   */\n      dup3\n        /* \"#utility.yul\":2254:2272   */\n      add\n        /* \"#utility.yul\":2246:2272   */\n      swap1\n      pop\n        /* \"#utility.yul\":2282:2347   */\n      tag_100\n        /* \"#utility.yul\":2344:2345   */\n      0x00\n        /* \"#utility.yul\":2333:2342   */\n      dup4\n        /* \"#utility.yul\":2329:2346   */\n      add\n        /* \"#utility.yul\":2320:2326   */\n      dup5\n        /* \"#utility.yul\":2282:2347   */\n      tag_85\n      jump\t// in\n    tag_100:\n        /* \"#utility.yul\":2144:2354   */\n      swap3\n      swap2\n      pop\n      pop\n      jump\t// out\n        /* \"#utility.yul\":2360:2582   */\n    tag_17:\n        /* \"#utility.yul\":2453:2457   */\n      0x00\n        /* \"#utility.yul\":2491:2493   */\n      0x20\n        /* \"#utility.yul\":2480:2489   */\n      dup3\n        /* \"#utility.yul\":2476:2494   */\n      add\n        /* \"#utility.yul\":2468:2494   */\n      swap1\n      pop\n        /* \"#utility.yul\":2504:2575   */\n      tag_102\n        /* \"#utility.yul\":2572:2573   */\n      0x00\n        /* \"#utility.yul\":2561:2570   */\n      dup4\n        /* \"#utility.yul\":2557:2574   */\n      add\n        /* \"#utility.yul\":2548:2554   */\n      dup5\n        /* \"#utility.yul\":2504:2575   */\n      tag_89\n      jump\t// in\n    tag_102:\n        /* \"#utility.yul\":2360:2582   */\n      swap3\n      swap2\n      pop\n      pop\n      jump\t// out\n        /* \"#utility.yul\":2588:2802   */\n    tag_36:\n        /* \"#utility.yul\":2677:2681   */\n      0x00\n        /* \"#utility.yul\":2715:2717   */\n      0x20\n        /* \"#utility.yul\":2704:2713   */\n      dup3\n        /* \"#utility.yul\":2700:2718   */\n      add\n        /* \"#utility.yul\":2692:2718   */\n      swap1\n      pop\n        /* \"#utility.yul\":2728:2795   */\n      tag_104\n        /* \"#utility.yul\":2792:2793   */\n      0x00\n        /* \"#utility.yul\":2781:2790   */\n      dup4\n        /* \"#utility.yul\":2777:2794   */\n      add\n        /* \"#utility.yul\":2768:2774   */\n      dup5\n        /* \"#utility.yul\":2728:2795   */\n      tag_93\n      jump\t// in\n    tag_104:\n        /* \"#utility.yul\":2588:2802   */\n      swap3\n      swap2\n      pop\n      pop\n      jump\t// out\n        /* \"#utility.yul\":2889:2985   */\n    tag_84:\n        /* \"#utility.yul\":2926:2933   */\n      0x00\n        /* \"#utility.yul\":2955:2979   */\n      tag_108\n        /* \"#utility.yul\":2973:2978   */\n      dup3\n        /* \"#utility.yul\":2955:2979   */\n      tag_109\n      jump\t// in\n    tag_108:\n        /* \"#utility.yul\":2944:2979   */\n      swap1\n      pop\n        /* \"#utility.yul\":2889:2985   */\n      swap2\n      swap1\n      pop\n      jump\t// out\n        /* \"#utility.yul\":2991:3081   */\n    tag_88:\n        /* \"#utility.yul\":3025:3032   */\n      0x00\n        /* \"#utility.yul\":3068:3073   */\n      dup2\n        /* \"#utility.yul\":3061:3074   */\n      iszero\n        /* \"#utility.yul\":3054:3075   */\n      iszero\n        /* \"#utility.yul\":3043:3075   */\n      swap1\n      pop\n        /* \"#utility.yul\":2991:3081   */\n      swap2\n      swap1\n      pop\n      jump\t// out\n        /* \"#utility.yul\":3087:3213   */\n    tag_109:\n        /* \"#utility.yul\":3124:3131   */\n      0x00\n        /* \"#utility.yul\":3164:3206   */\n      0xffffffffffffffffffffffffffffffffffffffff\n        /* \"#utility.yul\":3157:3162   */\n      dup3\n        /* \"#utility.yul\":3153:3207   */\n      and\n        /* \"#utility.yul\":3142:3207   */\n      swap1\n      pop\n        /* \"#utility.yul\":3087:3213   */\n      swap2\n      swap1\n      pop\n      jump\t// out\n        /* \"#utility.yul\":3219:3296   */\n    tag_92:\n        /* \"#utility.yul\":3256:3263   */\n      0x00\n        /* \"#utility.yul\":3285:3290   */\n      dup2\n        /* \"#utility.yul\":3274:3290   */\n      swap1\n      pop\n        /* \"#utility.yul\":3219:3296   */\n      swap2\n      swap1\n      pop\n      jump\t// out\n        /* \"#utility.yul\":3302:3388   */\n    tag_96:\n        /* \"#utility.yul\":3337:3344   */\n      0x00\n        /* \"#utility.yul\":3377:3381   */\n      0xff\n        /* \"#utility.yul\":3370:3375   */\n      dup3\n        /* \"#utility.yul\":3366:3382   */\n      and\n        /* \"#utility.yul\":3355:3382   */\n      swap1\n      pop\n        /* \"#utility.yul\":3302:3388   */\n      swap2\n      swap1\n      pop\n      jump\t// out\n        /* \"#utility.yul\":3517:3634   */\n    tag_71:\n        /* \"#utility.yul\":3626:3627   */\n      0x00\n        /* \"#utility.yul\":3623:3624   */\n      dup1\n        /* \"#utility.yul\":3616:3628   */\n      revert\n        /* \"#utility.yul\":3640:3762   */\n    tag_59:\n        /* \"#utility.yul\":3713:3737   */\n      tag_118\n        /* \"#utility.yul\":3731:3736   */\n      dup2\n        /* \"#utility.yul\":3713:3737   */\n      tag_84\n      jump\t// in\n    tag_118:\n        /* \"#utility.yul\":3706:3711   */\n      dup2\n        /* \"#utility.yul\":3703:3738   */\n      eq\n        /* \"#utility.yul\":3693:3756   */\n      tag_119\n      jumpi\n        /* \"#utility.yul\":3752:3753   */\n      0x00\n        /* \"#utility.yul\":3749:3750   */\n      dup1\n        /* \"#utility.yul\":3742:3754   */\n      revert\n        /* \"#utility.yul\":3693:3756   */\n    tag_119:\n        /* \"#utility.yul\":3640:3762   */\n      pop\n      jump\t// out\n        /* \"#utility.yul\":3768:3884   */\n    tag_63:\n        /* \"#utility.yul\":3838:3859   */\n      tag_121\n        /* \"#utility.yul\":3853:3858   */\n      dup2\n        /* \"#utility.yul\":3838:3859   */\n      tag_88\n      jump\t// in\n    tag_121:\n        /* \"#utility.yul\":3831:3836   */\n      dup2\n        /* \"#utility.yul\":3828:3860   */\n      eq\n        /* \"#utility.yul\":3818:3878   */\n      tag_122\n      jumpi\n        /* \"#utility.yul\":3874:3875   */\n      0x00\n        /* \"#utility.yul\":3871:3872   */\n      dup1\n        /* \"#utility.yul\":3864:3876   */\n      revert\n        /* \"#utility.yul\":3818:3878   */\n    tag_122:\n        /* \"#utility.yul\":3768:3884   */\n      pop\n      jump\t// out\n        /* \"#utility.yul\":3890:4012   */\n    tag_67:\n        /* \"#utility.yul\":3963:3987   */\n      tag_124\n        /* \"#utility.yul\":3981:3986   */\n      dup2\n        /* \"#utility.yul\":3963:3987   */\n      tag_92\n      jump\t// in\n    tag_124:\n        /* \"#utility.yul\":3956:3961   */\n      dup2\n        /* \"#utility.yul\":3953:3988   */\n      eq\n        /* \"#utility.yul\":3943:4006   */\n      tag_125\n      jumpi\n        /* \"#utility.yul\":4002:4003   */\n      0x00\n        /* \"#utility.yul\":3999:4000   */\n      dup1\n        /* \"#utility.yul\":3992:4004   */\n      revert\n        /* \"#utility.yul\":3943:4006   */\n    tag_125:\n        /* \"#utility.yul\":3890:4012   */\n      pop\n      jump\t// out\n\n    auxdata: 0xa26469706673582212204dcfd8a206dff72e2462aa85b77083a1d3ba962c7bc1cf5db6e28d16a5dee95f64736f6c63430008070033\n}\n",
				"bytecode": {
					"linkReferences": {},
					"object": "608060405234801561001057600080fd5b50610547806100206000396000f3fe608060405234801561001057600080fd5b506004361061009e5760003560e01c8063da50eaee11610066578063da50eaee14610125578063e2a4b2af1461012f578063e30081a01461014d578063e492fd8414610169578063e9859081146101855761009e565b806306540f7e146100a357806314bf43bd146100c157806315502612146100cb57806326b85ee1146100e95780636deecdbe14610107575b600080fd5b6100ab6101a1565b6040516100b8919061043c565b60405180910390f35b6100c96101a7565b005b6100d36101da565b6040516100e0919061043c565b60405180910390f35b6100f161021b565b6040516100fe9190610406565b60405180910390f35b61010f610241565b60405161011c9190610421565b60405180910390f35b61012d610254565b005b610137610288565b6040516101449190610457565b60405180910390f35b61016760048036038101906101629190610343565b610299565b005b610183600480360381019061017e919061039d565b6102dd565b005b61019f600480360381019061019a9190610370565b6102e7565b005b60005481565b60018081819054906101000a900460ff168092919060010191906101000a81548160ff021916908360ff16021790555050565b6000600160029054906101000a900473ffffffffffffffffffffffffffffffffffffffff1673ffffffffffffffffffffffffffffffffffffffff1631905090565b600160029054906101000a900473ffffffffffffffffffffffffffffffffffffffff1681565b600160009054906101000a900460ff1681565b60018081819054906101000a900460ff16809291906001900391906101000a81548160ff021916908360ff16021790555050565b60018054906101000a900460ff1681565b80600160026101000a81548173ffffffffffffffffffffffffffffffffffffffff021916908373ffffffffffffffffffffffffffffffffffffffff16021790555050565b8060008190555050565b80600160006101000a81548160ff02191690831515021790555050565b600081359050610313816104cc565b92915050565b600081359050610328816104e3565b92915050565b60008135905061033d816104fa565b92915050565b600060208284031215610359576103586104c7565b5b600061036784828501610304565b91505092915050565b600060208284031215610386576103856104c7565b5b600061039484828501610319565b91505092915050565b6000602082840312156103b3576103b26104c7565b5b60006103c18482850161032e565b91505092915050565b6103d381610472565b82525050565b6103e281610484565b82525050565b6103f1816104b0565b82525050565b610400816104ba565b82525050565b600060208201905061041b60008301846103ca565b92915050565b600060208201905061043660008301846103d9565b92915050565b600060208201905061045160008301846103e8565b92915050565b600060208201905061046c60008301846103f7565b92915050565b600061047d82610490565b9050919050565b60008115159050919050565b600073ffffffffffffffffffffffffffffffffffffffff82169050919050565b6000819050919050565b600060ff82169050919050565b600080fd5b6104d581610472565b81146104e057600080fd5b50565b6104ec81610484565b81146104f757600080fd5b50565b610503816104b0565b811461050e57600080fd5b5056fea26469706673582212204dcfd8a206dff72e2462aa85b77083a1d3ba962c7bc1cf5db6e28d16a5dee95f64736f6c63430008070033",
					"opcodes": "PUSH1 0x80 PUSH1 0x40 MSTORE CALLVALUE DUP1 ISZERO PUSH2 0x10 JUMPI PUSH1 0x0 DUP1 REVERT JUMPDEST POP PUSH2 0x547 DUP1 PUSH2 0x20 PUSH1 0x0 CODECOPY PUSH1 0x0 RETURN INVALID PUSH1 0x80 PUSH1 0x40 MSTORE CALLVALUE DUP1 ISZERO PUSH2 0x10 JUMPI PUSH1 0x0 DUP1 REVERT JUMPDEST POP PUSH1 0x4 CALLDATASIZE LT PUSH2 0x9E JUMPI PUSH1 0x0 CALLDATALOAD PUSH1 0xE0 SHR DUP1 PUSH4 0xDA50EAEE GT PUSH2 0x66 JUMPI DUP1 PUSH4 0xDA50EAEE EQ PUSH2 0x125 JUMPI DUP1 PUSH4 0xE2A4B2AF EQ PUSH2 0x12F JUMPI DUP1 PUSH4 0xE30081A0 EQ PUSH2 0x14D JUMPI DUP1 PUSH4 0xE492FD84 EQ PUSH2 0x169 JUMPI DUP1 PUSH4 0xE9859081 EQ PUSH2 0x185 JUMPI PUSH2 0x9E JUMP JUMPDEST DUP1 PUSH4 0x6540F7E EQ PUSH2 0xA3 JUMPI DUP1 PUSH4 0x14BF43BD EQ PUSH2 0xC1 JUMPI DUP1 PUSH4 0x15502612 EQ PUSH2 0xCB JUMPI DUP1 PUSH4 0x26B85EE1 EQ PUSH2 0xE9 JUMPI DUP1 PUSH4 0x6DEECDBE EQ PUSH2 0x107 JUMPI JUMPDEST PUSH1 0x0 DUP1 REVERT JUMPDEST PUSH2 0xAB PUSH2 0x1A1 JUMP JUMPDEST PUSH1 0x40 MLOAD PUSH2 0xB8 SWAP2 SWAP1 PUSH2 0x43C JUMP JUMPDEST PUSH1 0x40 MLOAD DUP1 SWAP2 SUB SWAP1 RETURN JUMPDEST PUSH2 0xC9 PUSH2 0x1A7 JUMP JUMPDEST STOP JUMPDEST PUSH2 0xD3 PUSH2 0x1DA JUMP JUMPDEST PUSH1 0x40 MLOAD PUSH2 0xE0 SWAP2 SWAP1 PUSH2 0x43C JUMP JUMPDEST PUSH1 0x40 MLOAD DUP1 SWAP2 SUB SWAP1 RETURN JUMPDEST PUSH2 0xF1 PUSH2 0x21B JUMP JUMPDEST PUSH1 0x40 MLOAD PUSH2 0xFE SWAP2 SWAP1 PUSH2 0x406 JUMP JUMPDEST PUSH1 0x40 MLOAD DUP1 SWAP2 SUB SWAP1 RETURN JUMPDEST PUSH2 0x10F PUSH2 0x241 JUMP JUMPDEST PUSH1 0x40 MLOAD PUSH2 0x11C SWAP2 SWAP1 PUSH2 0x421 JUMP JUMPDEST PUSH1 0x40 MLOAD DUP1 SWAP2 SUB SWAP1 RETURN JUMPDEST PUSH2 0x12D PUSH2 0x254 JUMP JUMPDEST STOP JUMPDEST PUSH2 0x137 PUSH2 0x288 JUMP JUMPDEST PUSH1 0x40 MLOAD PUSH2 0x144 SWAP2 SWAP1 PUSH2 0x457 JUMP JUMPDEST PUSH1 0x40 MLOAD DUP1 SWAP2 SUB SWAP1 RETURN JUMPDEST PUSH2 0x167 PUSH1 0x4 DUP1 CALLDATASIZE SUB DUP2 ADD SWAP1 PUSH2 0x162 SWAP2 SWAP1 PUSH2 0x343 JUMP JUMPDEST PUSH2 0x299 JUMP JUMPDEST STOP JUMPDEST PUSH2 0x183 PUSH1 0x4 DUP1 CALLDATASIZE SUB DUP2 ADD SWAP1 PUSH2 0x17E SWAP2 SWAP1 PUSH2 0x39D JUMP JUMPDEST PUSH2 0x2DD JUMP JUMPDEST STOP JUMPDEST PUSH2 0x19F PUSH1 0x4 DUP1 CALLDATASIZE SUB DUP2 ADD SWAP1 PUSH2 0x19A SWAP2 SWAP1 PUSH2 0x370 JUMP JUMPDEST PUSH2 0x2E7 JUMP JUMPDEST STOP JUMPDEST PUSH1 0x0 SLOAD DUP2 JUMP JUMPDEST PUSH1 0x1 DUP1 DUP2 DUP2 SWAP1 SLOAD SWAP1 PUSH2 0x100 EXP SWAP1 DIV PUSH1 0xFF AND DUP1 SWAP3 SWAP2 SWAP1 PUSH1 0x1 ADD SWAP2 SWAP1 PUSH2 0x100 EXP DUP2 SLOAD DUP2 PUSH1 0xFF MUL NOT AND SWAP1 DUP4 PUSH1 0xFF AND MUL OR SWAP1 SSTORE POP POP JUMP JUMPDEST PUSH1 0x0 PUSH1 0x1 PUSH1 0x2 SWAP1 SLOAD SWAP1 PUSH2 0x100 EXP SWAP1 DIV PUSH20 0xFFFFFFFFFFFFFFFFFFFFFFFFFFFFFFFFFFFFFFFF AND PUSH20 0xFFFFFFFFFFFFFFFFFFFFFFFFFFFFFFFFFFFFFFFF AND BALANCE SWAP1 POP SWAP1 JUMP JUMPDEST PUSH1 0x1 PUSH1 0x2 SWAP1 SLOAD SWAP1 PUSH2 0x100 EXP SWAP1 DIV PUSH20 0xFFFFFFFFFFFFFFFFFFFFFFFFFFFFFFFFFFFFFFFF AND DUP2 JUMP JUMPDEST PUSH1 0x1 PUSH1 0x0 SWAP1 SLOAD SWAP1 PUSH2 0x100 EXP SWAP1 DIV PUSH1 0xFF AND DUP2 JUMP JUMPDEST PUSH1 0x1 DUP1 DUP2 DUP2 SWAP1 SLOAD SWAP1 PUSH2 0x100 EXP SWAP1 DIV PUSH1 0xFF AND DUP1 SWAP3 SWAP2 SWAP1 PUSH1 0x1 SWAP1 SUB SWAP2 SWAP1 PUSH2 0x100 EXP DUP2 SLOAD DUP2 PUSH1 0xFF MUL NOT AND SWAP1 DUP4 PUSH1 0xFF AND MUL OR SWAP1 SSTORE POP POP JUMP JUMPDEST PUSH1 0x1 DUP1 SLOAD SWAP1 PUSH2 0x100 EXP SWAP1 DIV PUSH1 0xFF AND DUP2 JUMP JUMPDEST DUP1 PUSH1 0x1 PUSH1 0x2 PUSH2 0x100 EXP DUP2 SLOAD DUP2 PUSH20 0xFFFFFFFFFFFFFFFFFFFFFFFFFFFFFFFFFFFFFFFF MUL NOT AND SWAP1 DUP4 PUSH20 0xFFFFFFFFFFFFFFFFFFFFFFFFFFFFFFFFFFFFFFFF AND MUL OR SWAP1 SSTORE POP POP JUMP JUMPDEST DUP1 PUSH1 0x0 DUP2 SWAP1 SSTORE POP POP JUMP JUMPDEST DUP1 PUSH1 0x1 PUSH1 0x0 PUSH2 0x100 EXP DUP2 SLOAD DUP2 PUSH1 0xFF MUL NOT AND SWAP1 DUP4 ISZERO ISZERO MUL OR SWAP1 SSTORE POP POP JUMP JUMPDEST PUSH1 0x0 DUP2 CALLDATALOAD SWAP1 POP PUSH2 0x313 DUP2 PUSH2 0x4CC JUMP JUMPDEST SWAP3 SWAP2 POP POP JUMP JUMPDEST PUSH1 0x0 DUP2 CALLDATALOAD SWAP1 POP PUSH2 0x328 DUP2 PUSH2 0x4E3 JUMP JUMPDEST SWAP3 SWAP2 POP POP JUMP JUMPDEST PUSH1 0x0 DUP2 CALLDATALOAD SWAP1 POP PUSH2 0x33D DUP2 PUSH2 0x4FA JUMP JUMPDEST SWAP3 SWAP2 POP POP JUMP JUMPDEST PUSH1 0x0 PUSH1 0x20 DUP3 DUP5 SUB SLT ISZERO PUSH2 0x359 JUMPI PUSH2 0x358 PUSH2 0x4C7 JUMP JUMPDEST JUMPDEST PUSH1 0x0 PUSH2 0x367 DUP5 DUP3 DUP6 ADD PUSH2 0x304 JUMP JUMPDEST SWAP2 POP POP SWAP3 SWAP2 POP POP JUMP JUMPDEST PUSH1 0x0 PUSH1 0x20 DUP3 DUP5 SUB SLT ISZERO PUSH2 0x386 JUMPI PUSH2 0x385 PUSH2 0x4C7 JUMP JUMPDEST JUMPDEST PUSH1 0x0 PUSH2 0x394 DUP5 DUP3 DUP6 ADD PUSH2 0x319 JUMP JUMPDEST SWAP2 POP POP SWAP3 SWAP2 POP POP JUMP JUMPDEST PUSH1 0x0 PUSH1 0x20 DUP3 DUP5 SUB SLT ISZERO PUSH2 0x3B3 JUMPI PUSH2 0x3B2 PUSH2 0x4C7 JUMP JUMPDEST JUMPDEST PUSH1 0x0 PUSH2 0x3C1 DUP5 DUP3 DUP6 ADD PUSH2 0x32E JUMP JUMPDEST SWAP2 POP POP SWAP3 SWAP2 POP POP JUMP JUMPDEST PUSH2 0x3D3 DUP2 PUSH2 0x472 JUMP JUMPDEST DUP3 MSTORE POP POP JUMP JUMPDEST PUSH2 0x3E2 DUP2 PUSH2 0x484 JUMP JUMPDEST DUP3 MSTORE POP POP JUMP JUMPDEST PUSH2 0x3F1 DUP2 PUSH2 0x4B0 JUMP JUMPDEST DUP3 MSTORE POP POP JUMP JUMPDEST PUSH2 0x400 DUP2 PUSH2 0x4BA JUMP JUMPDEST DUP3 MSTORE POP POP JUMP JUMPDEST PUSH1 0x0 PUSH1 0x20 DUP3 ADD SWAP1 POP PUSH2 0x41B PUSH1 0x0 DUP4 ADD DUP5 PUSH2 0x3CA JUMP JUMPDEST SWAP3 SWAP2 POP POP JUMP JUMPDEST PUSH1 0x0 PUSH1 0x20 DUP3 ADD SWAP1 POP PUSH2 0x436 PUSH1 0x0 DUP4 ADD DUP5 PUSH2 0x3D9 JUMP JUMPDEST SWAP3 SWAP2 POP POP JUMP JUMPDEST PUSH1 0x0 PUSH1 0x20 DUP3 ADD SWAP1 POP PUSH2 0x451 PUSH1 0x0 DUP4 ADD DUP5 PUSH2 0x3E8 JUMP JUMPDEST SWAP3 SWAP2 POP POP JUMP JUMPDEST PUSH1 0x0 PUSH1 0x20 DUP3 ADD SWAP1 POP PUSH2 0x46C PUSH1 0x0 DUP4 ADD DUP5 PUSH2 0x3F7 JUMP JUMPDEST SWAP3 SWAP2 POP POP JUMP JUMPDEST PUSH1 0x0 PUSH2 0x47D DUP3 PUSH2 0x490 JUMP JUMPDEST SWAP1 POP SWAP2 SWAP1 POP JUMP JUMPDEST PUSH1 0x0 DUP2 ISZERO ISZERO SWAP1 POP SWAP2 SWAP1 POP JUMP JUMPDEST PUSH1 0x0 PUSH20 0xFFFFFFFFFFFFFFFFFFFFFFFFFFFFFFFFFFFFFFFF DUP3 AND SWAP1 POP SWAP2 SWAP1 POP JUMP JUMPDEST PUSH1 0x0 DUP2 SWAP1 POP SWAP2 SWAP1 POP JUMP JUMPDEST PUSH1 0x0 PUSH1 0xFF DUP3 AND SWAP1 POP SWAP2 SWAP1 POP JUMP JUMPDEST PUSH1 0x0 DUP1 REVERT JUMPDEST PUSH2 0x4D5 DUP2 PUSH2 0x472 JUMP JUMPDEST DUP2 EQ PUSH2 0x4E0 JUMPI PUSH1 0x0 DUP1 REVERT JUMPDEST POP JUMP JUMPDEST PUSH2 0x4EC DUP2 PUSH2 0x484 JUMP JUMPDEST DUP2 EQ PUSH2 0x4F7 JUMPI PUSH1 0x0 DUP1 REVERT JUMPDEST POP JUMP JUMPDEST PUSH2 0x503 DUP2 PUSH2 0x4B0 JUMP JUMPDEST DUP2 EQ PUSH2 0x50E JUMPI PUSH1 0x0 DUP1 REVERT JUMPDEST POP JUMP INVALID LOG2 PUSH5 0x6970667358 0x22 SLT KECCAK256 0x4D 0xCF 0xD8 LOG2 MOD 0xDF 0xF7 0x2E 0x24 PUSH3 0xAA85B7 PUSH17 0x83A1D3BA962C7BC1CF5DB6E28D16A5DEE9 0x5F PUSH5 0x736F6C6343 STOP ADDMOD SMOD STOP CALLER "
				},
				"gasEstimates": {
					"creation": {
						"codeDepositCost": "270200",
						"executionCost": "312",
						"totalCost": "270512"
					},
					"external": {
						"decrementUint()": "26676",
						"getBalanceOfAddress()": "5174",
						"incrementUint()": "26696",
						"myAddress()": "2631",
						"myBool()": "2560",
						"myUint()": "2430",
						"myUint8()": "2540",
						"setAddress(address)": "24816",
						"setMyUint(uint256)": "22586",
						"setmyBool(bool)": "24767"
					}
				},
				"methodIdentifiers": {
					"decrementUint()": "da50eaee",
					"getBalanceOfAddress()": "15502612",
					"incrementUint()": "14bf43bd",
					"myAddress()": "26b85ee1",
					"myBool()": "6deecdbe",
					"myUint()": "06540f7e",
					"myUint8()": "e2a4b2af",
					"setAddress(address)": "e30081a0",
					"setMyUint(uint256)": "e492fd84",
					"setmyBool(bool)": "e9859081"
				}
			},
			"userdoc": {
				"kind": "user",
				"methods": {},
				"version": 1
			}
		}
	}
}